:100000006F00800813000000732320349373F30003
:10001000130E4002B383C30183A303006780030070
:10002000130000009302000003A302001303130057
:1000300023A06200B70380BF23A8630073002030B1
:1000400013000000130FA000930F3000330EFF4188
:100050001300000073231034130343007310133490
:100060007300203013000000130000006FF09FFEAB
:100070001300000013000000130000001300000034
:100080006FF05FFD13000000B71200009382028042
:1000900073A042309302800073905230130EF00030
:1000A00073100E30B70580BF93854500370580BFBC
:1000B0009304700013040000232685001300000041
:1000C00083A20500232055006FF09FFF130000005E
:00000001FF
