:100000006F000001130000006F00C00C130000001F
:100010009302800073905230B712000093820280E6
:1000200073A04230130EF00073100E30B742000080
:100030009382020037530000130303009303500020
:100040009393A30093E3130023A07200130E000008
:10005000130EBE002320C301B70B002093DB2B003F
:10006000130E7000336E7E012322C301B72B0020D4
:1000700093DB2B00130EB000336E7E012324C301EB
:10008000B73B002093DB2B00130FB000336F7F01D1
:100090002326E301B70B008093DB2B00130E7000C7
:1000A000336E7E012328C301B70E0080938E4E006D
:1000B00073900E18130000001300000013000000DE
:1000C000130000000F100000372100006F10507364
:1000D0001300000073100018730000126FF05FF33C
:102000001300000013000000B742000037C3FECAEF
:102010001303E3AB23A062001300000083A30200BC
:10202000370E80BF630A730093FEF30F939E8E00FA
:102030002320DE016F00400193FEF30F939E8E007C
:1020400093EE1E002320DE016F000000130000004D
:0400000300000010E9
:00000001FF
