:100000003C1D000037BD104027BDFFD8AFBF002406
:10001000AFBE002003A0F0253C0200002442051CD6
:10002000AFC200103C0200002442051CAFC2001405
:100030003C02000124428488AFC200181000000670
:10004000000000008FC20010AC4000008FC2001002
:1000500024420004AFC200108FC300108FC20014EE
:100060001462FFF8000000008FC200180040E8256D
:100070000C000028000000000800001E0000000026
:10008000000000000000000003C0E8258FBF00242E
:100090008FBE002027BD002803E0000800000000FC
:1000A00027BDFF50AFBF00ACAFBE00A803A0F02536
:1000B0003C02000027C300142442048C240400489E
:1000C0000080302500402825006020250C00010418
:1000D000000000003C02000027C3005C244204D45E
:1000E0002404004800803025004028250060202599
:1000F0000C00010400000000AFC00010100000213F
:10010000000000008FC200100002108027C3001002
:10011000006210218C420004004020250C0000B930
:10012000000000008FC200100002108027C30010E2
:10013000006210218C420004004020250C00006762
:10014000000000008FC200100002108027C30010C2
:10015000006210218C42004C004020250C000099C8
:10016000000000000C00008B000000002404000AC6
:100170000C000099000000008FC200102442000112
:10018000AFC200108FC20010284200121440FFDDE1
:10019000000000001000FFD80000000027BDFFF89D
:1001A000AFBE000403A0F025AFC400088FC2000852
:1001B0002C420001304300FF8FC200082C4207D1BF
:1001C00038420001304200FF00621025304200FF3B
:1001D00010400006000000003C02BF80344200389E
:1001E000AC4000001000000B000000003C02BF808B
:1001F000344200383C0300073464A1208FC3000858
:100200000083001B006001F40000181000001812A9
:10021000AC4300000000000003C0E8258FBE0004CE
:1002200027BD000803E000080000000027BDFFE82C
:10023000AFBF0014AFBE001003A0F02500002025C2
:100240000C000067000000000000000003C0E8256B
:100250008FBF00148FBE001027BD001803E00008F8
:100260000000000027BDFFE8AFBE001403A0F0258A
:10027000AFC40018AFC00000AFC00004AFC000089A
:100280003C02BF80344200348C420000AFC2000008
:1002900010000009000000003C02BF80344200341E
:1002A0008C420000AFC200048FC300048FC2000064
:1002B00000621023AFC200088FC200088FC300186D
:1002C0000043102B1440FFF4000000000000000069
:1002D00003C0E8258FBE001427BD001803E0000806
:1002E0000000000027BDFFE8AFBE001403A0F0250A
:1002F000AFC40018AFC00004AFC00008AFC0000416
:1003000010000027000000008FC400183C02CCCC75
:100310003442CCCD0082001900001010000218C237
:1003200000601025000210800043102100021040E0
:100330000082182300601025AFC200008FC30000A8
:100340008FC20004000210800043100400401825F2
:100350008FC2000800621025AFC200088FC30018CA
:100360003C02CCCC3442CCCD00620019000010100D
:10037000000210C2AFC200188FC2000424030001A3
:1003800000431004004018258FC2000C00621025A5
:10039000AFC2000C8FC2000424420001AFC20004AF
:1003A0008FC200181440FFD8000000003C02BF803C
:1003B000344200108FC30008AC4300008FC3000C10
:1003C0003C02BF803442000C00031827AC430000FD
:1003D0000000000003C0E8258FBE001427BD0018F0
:1003E00003E000080000000027BDFFF8AFBE0004D6
:1003F00003A0F025AFC40008AFC5000C3C02BF80CD
:1004000034038001AC4300001000FFFF0000000037
:1004100027BDFFF0AFBE000C03A0F025AFC4001055
:10042000AFC50014AFC600188FC20010AFC20000E5
:100430008FC20014AFC200041000000900000000C9
:100440008FC3000424620001AFC200048FC2000009
:1004500024440001AFC4000090630000A0430000EA
:100460008FC200182443FFFFAFC300181440FFF4ED
:10047000000000008FC2001003C0E8258FBE000CF2
:0C04800027BD001003E000080000000091
:10048C000000012600000126000001880000024B3C
:10049C000000020B000001EE000001B80000031088
:1004AC000000024B0000020B000001EE000001B83E
:1004BC00000003100000024B0000020B000001EED4
:1004CC000000020B000001B8000000DC000000DCA2
:1004DC00000003CA000001D600000087000000875E
:1004EC0000000087000003CA000001D6000000874E
:1004FC000000008700000087000003CA000001D63E
:10050C00000000870000008700000087000005DC69
:00000001FF
