:100000006F000001130000006F008000130000006B
:100010009302800073905230B712000093820280E6
:1000200073A04230130EF00073100E30B742000080
:100030009382020037530000130303009303500020
:100040009393A30093E3130023A07200130E000008
:10005000130EBE002320C301B70B002093DB2B003F
:10006000130E7000336E7E012322C301B72B0020D4
:1000700093DB2B00130EB000336E7E012324C301EB
:10008000B73B002093DB2B00130FB000336F7F01D1
:100090002326E301B70E0080938E4E0073900E1856
:1000A0001300000013000000130000001300000004
:1000B0000F100000372100006F1090741300000033
:102000001300000013000000B70301009383F3FFE7
:1020100013031000B70280BF23A062001303130054
:10202000631673001300000013031000372E260000
:10203000130E2E5A930E0000330FDE41938E1E00B6
:10204000E31C0FFE130000006FF01FFD13000000E3
:0400000300000010E9
:00000001FF
