:100000006F00400713000000732320349373F30044
:10001000130E0002B383C30183A3030067800300B0
:1000200013000000130000007300203013000000D4
:10003000130FA000930F3000330EFF411300000098
:1000400073231034130343007310133473002030F0
:1000500013000000130000006FF09FFE130000006B
:100060001300000013000000130000006FF05FFD9C
:1000700013000000B71200009382028073A0423088
:100080009302800073905230130EF00073100E3004
:10009000930000001301000093010000970000008E
:1000A0001711000097F1FFFF33021140B382304077
:1000B00013050008232015002322250023243500E2
:1000C0002326450023285500EF0000001300000000
:00000001FF
