:100000006F000001130000006F008000130000006B
:100010009302800073905230B712000093820280E6
:1000200073A04230130EF00073100E30B742000080
:100030009382020037530000130303009303500020
:100040009393A30093E3130023A07200130E000008
:10005000130EBE002320C301B70B002093DB2B003F
:10006000130E7000336E7E012322C301B72B0020D4
:1000700093DB2B00130EB000336E7E012324C301EB
:10008000B73B002093DB2B00130FB000336F7F01D1
:100090002326E301B70E0080938E4E0073900E1856
:1000A0001300000013000000130000001300000004
:1000B0000F100000372100006F1090741300000033
:1010000000000000000000000000000000000000E0
:1010100000000000000000000000000000000000D0
:102000001300000013000000930000001301000003
:10201000930100001302000093020000130F000060
:10202000970000001711000097F1FFFF33021140E5
:10203000B71200009382420033035240630403004E
:102040006F000007130F1F00B383304037140000E8
:10205000130484FFB3848340638404006F0040054D
:10206000130F1F003715000013050500232015006E
:10207000232225002324350023264500232875002C
:10208000232AE50193052000630ABF0037E600001C
:102090001306D6EA232CC5006F0000013766000046
:1020A0001306D600232CC500EF000000130000002B
:0420B0006FF09FFF2F
:0400000300000010E9
:00000001FF
