:100000006F000001130000006F008000130000006B
:100010009302800073905230B712000093820280E6
:1000200073A04230130EF00073100E30B742000080
:100030009382020037530000130303009303500020
:100040009393A30093E3130023A07200B70B002047
:1000500093DB2B00130E7000336E7E012320C3014F
:10006000B71B002093DB2B00130E7000336E7E0154
:100070002322C301B72B002093DB2B00130EB0000B
:10008000336E7E012324C301B73B002093DB2B009A
:10009000130FB000336F7F012326E301B70E0080FA
:1000A000938E4E0073900E18130000001300000092
:1000B0001300000013000000372100006F1050747F
:0400C0001300000029
:020000042000DA
:1000000000000000000000000000000000000000F0
:1000100000000000000000000000000000000000E0
:1000200000000000000000000000000000000000D0
:10003000000000000000000002000000FFFFFF7F42
:10004000A300000027000000790000001501000057
:1000500000000000000000000000000000000000A0
:100060000000000000000000000000000000000090
:102000001300000013000000B70580BF9385450052
:10201000370580BF93047000130400002326850059
:1020200083A205002320550023285500130000003B
:08203000EFF01FFF1300000098
:0400000300000010E9
:00000001FF
