:10000000B74200009382020037530000130303003D
:10001000B71300009383134023A07200130EB003A4
:100020002320C301370E0000130E70432322C301A7
:10003000B70E0040938E4E0073900E18730000129E
:100040000F100000371F0000930FE0ABB7CFFECAC0
:10005000938FEFAB2320FF0183230F0063987F0072
:10006000130000006F0000001300000013000000E8
:100070001300000013000000130000006FF01FFFCA
:040080001300000069
:00000001FF
