:100000006F000001130000006F008000130000006B
:100010009302800073905230B712000093820280E6
:1000200073A04230130EF00073100E30B742000080
:100030009382020037530000130303009303500020
:100040009393A30093E3130023A07200130E000008
:10005000130EBE002320C301B70B002093DB2B003F
:10006000130E7000336E7E012322C301B72B0020D4
:1000700093DB2B00130EB000336E7E012324C301EB
:10008000B73B002093DB2B00130FB000336F7F01D1
:100090002326E301B70E0080938E4E0073900E1856
:1000A0001300000013000000130000001300000004
:1000B0000F100000372100006F1090741300000033
:1010000000000000000000000000000000000000E0
:10101000000000000000C0400000C0410000C043CC
:0C102000007C2A490000804000000040D5
:10200000B3050000B71200009382420187A00200CE
:10201000B71200009382820107A10200B7120000EC
:102020009382C20187A10200B712000093820202CC
:1020300007A2020053721200D3F14108537122101B
:10204000D3F04010B71200009382020027A01200C4
:10205000B71200009382420027A02200B7120000AE
:102060009382820027A03200B71200009382C20040
:1020700027A04200B71200009382420207A002008C
:10208000B71200009382820287A00200D371101859
:10209000D3F10158D3F101586F0000001300000084
:0400000300000010E9
:00000001FF
