:100000006F00C00813000000732320349373F300C3
:1000100093932300130E4002B383C30183A3030011
:1000200067800300130000009302000003A3020096
:100030001303130023A06200B70380BF23A863004B
:100040007300203013000000130FA000930F300046
:10005000330EFF41130000007323103413034300D9
:1000600073101334730020301300000013000000DD
:100070006FF09FFE1300000013000000130000004B
:10008000130000006FF05FFD13000000B7120000C6
:100090009382028073A0423093628000739052304A
:1000A000130E800073200E30B30500009302800908
:1000B00087A002009302400827A0120083A5020037
:1000C0009302C00907A102009302800827A0120032
:1000D00083A502009302400A87A30200930200094D
:1000E00027A0120083A502009302000A87A1020044
:1000F0009302C00827A0120083A5020053F2130048
:10010000D3F1410853712210D3F0401093024008FC
:1001100027A012009302800827A022009302C008A3
:1001200027A032009302000927A042009302800A10
:1001300007A002009302C00A87A00200D371101822
:10014000D3F10158D3F10158B70580BF938545001D
:10015000370580BF93047000130400002326850038
:100160001300000083A20500232055006FF09FFFBD
:040170001300000078
:00000001FF
