:100000006F000001130000006F00C0131300000018
:1000100093028000739052307310003073104030A0
:10002000B7220020938202003703008013030300ED
:10003000B7430000638E030003AE02002320C30118
:1000400093824200130343009383C3FF6FF09FFE2C
:10005000B7420000938202003753000013030300ED
:10006000930350009393A30093E3130023A0720023
:10007000930350009393A30093E31300138CF27F38
:10008000130C1C0023207C00130E0000130EBE0076
:100090002320C301130E1000131EAE00136E7E004A
:1000A0002322C301130E2000131EAE00136E7E0028
:1000B0002324C301130E3000131EAE00136E7E0006
:1000C0002326C301B70B008093DB2B00130E7000B7
:1000D000336E7E012328C30193020340B7030080DF
:1000E000930E0001130FB000136F4F00B71C0000F8
:1000F00063800E0293DF2300B3EFEF0123A0F20130
:1001000093824200B3839301938EFEFF6FF05FFEF4
:10011000B70E0080938E4E0073900E1813000000EF
:100120001300000013000000130000000F10000077
:1001300037010180B70200809382020067800200CD
:100140001300000073100018730000126FF05FECD2
:020000042000DA
:102000001300000013000000B7F2008037C3FECABF
:102010001303E3AB23A062001300000083A30200BC
:10202000370E80BF630A730093FEF30F939E8E00FA
:102030002320DE016F00400193FEF30F939E8E007C
:1020400093EE1E002320DE016F000000130000004D
:0400000300000010E9
:00000001FF
