:100000006F000001130000006F008000130000006B
:100010009302800073905230B712000093820280E6
:1000200073A04230130EF00073100E30B742000080
:100030009382020037530000130303009303500020
:100040009393A30093E3130023A07200B70B002047
:1000500093DB2B00130EB000336E7E012320C3010F
:10006000B71B002093DB2B00130E7000336E7E0154
:100070002322C301B72B002093DB2B00130EB0000B
:10008000336E7E012324C301B73B002093DB2B009A
:10009000130FB000336F7F012326E301B70E0080FA
:1000A000938E4E0073900E18730000120F10000014
:1000B00013000000130000001300000013000000F4
:0800C0006F1010741300000022
:020000042000DA
:102000003755341213058567B752341293828267AD
:102010001300000063185502371F0000B7CFFECA37
:10202000938FEFAB2320FF0183230F0013000000E9
:10203000639A7F0013000000130F1F006FF09FFFD3
:1020400013000000130000006FF0DFFF130000001A
:0400000300000010E9
:00000001FF
