:100000006F00800813000000732320349373F30003
:10001000130E0002B383C30183A3030067800300B0
:10002000130000009302000803A30200130313004F
:1000300023A06200B70380BF23A8630073002030B1
:1000400013000000130FA000930F3000330EFF4188
:100050001300000073231034130343007310133490
:100060007300203013000000130000006FF09FFEAB
:100070001300000013000000130000001300000034
:100080006FF05FFD13000000B71200009382028042
:1000900073A042309362800073905230130EF000D0
:1000A00073200E30032E8004832EC0041300000042
:1000B000330EDE0113000000730000001300000087
:1000C0007F000000130000001305000593054000A9
:1000D000330E000013000000832E050013054500B9
:1000E000330EDE019385F5FFE39805FE1300000053
:1000F000B70480BF93844400370480BF37B5000045
:100100001305A5AA93052000B336B5023306B50240
:100110001305F0FFB326B5023306B502B70500108C
:10012000938505FFB316B5023306B50237150000F7
:100130009305F01FB356B5023376B502130590FE52
:1001400093057000B346B5023366B502930590FF80
:10015000B346B5023366B5021305D00293052000FD
:100160003306B502B70580BF93854500370580BFCC
:100170009304700013040000232685001300000080
:1001800083A2050023205500232855006FF05FFF50
:040190001300000058
:00000001FF
