:10000000B700000013E2000593024000EF008005F6
:100010002320620083240200338444409302300092
:100020009382F2FF13E4F2FF134454559304F0FF5C
:1000300013F5F4FF3362950033449500B373450024
:10004000638402006FF0DFFD9302F0FF1394F2006F
:1000500013140401135404411354F400B321620037
:100060006F000000330300008324020013024200EB
:10007000330393009382F2FFE39802FE678000004F
:00000001FF
