:10000000B74200009382020037530000130303003D
:10001000930350009393A30093E3130023A0720073
:10002000130EB0032320C301130E7003930E1000B0
:10003000939EAE00336EDE012322C301970B0000B6
:10004000938B8B0693DBCB00139FAB00930FB00316
:10005000336FFF012326E301B70E0040938E4E005D
:1000600073900E18730000120F1000003735000057
:1000700013050500E7000500B7523412938282672A
:1000800063105502371F0000B7CFFECA938FEFAB46
:100090002320FF0183230F0063947F006F00000083
:1000A0006F00000037553412130585676780000024
:00000001FF
