:10000000930040011301600033CF2002930E3000B3
:1000100093012000631EDF0D9300C0FE13016000FA
:1000200033CF2002930ED0FF930130006312DF0D17
:10003000930040011301A0FF33CF2002930ED0FFA5
:10004000930140006316DF0B9300C0FE1301A0FF75
:1000500033CF2002930E300093015000631ADF0962
:100060009B0010009390F0011301100033CF200289
:100070009B0E1000939EFE0193016000631ADF0740
:100080009B0010009390F0011301F0FF33CF20028A
:100090009B0E1000939EFE0193017000631ADF0512
:1000A0009B0010009390F0011301000033CF200259
:1000B000930EF0FF93018000631CDF039300100098
:1000C0001301000033CF2002930EF0FF9301900044
:1000D0006310DF03930000001301000033CF200200
:1000E000930EF0FF9301A0006314DF01631430004E
:0800F000630000006300000042
:00000001FF
