:100000006F000001130000006F008000130000006B
:100010009302800073905230B712000093820280E6
:1000200073A04230130EF00073100E30B742000080
:100030009382020037530000130303009303500020
:100040009393A30093E3130023A07200130E000008
:10005000130EBE002320C301B70B002093DB2B003F
:10006000130E7000336E7E012322C301B72B0020D4
:1000700093DB2B00130EB000336E7E012324C301EB
:10008000B73B002093DB2B00130FB000336F7F01D1
:100090002326E301B70E0080938E4E0073900E1856
:1000A0001300000013000000130000001300000004
:1000B0000F100000372100006F1090741300000033
:020000042000DA
:1000000000000000000000000000000000000000F0
:10001000000000000000C0400000C0410000C043DC
:0C002000007C2A490000804000000040E5
:10200000B305000097E2FFFF9382020187A0020060
:1020100097E2FFFF9382820007A1020097E2FFFF91
:102020009382020087A1020097E2FFFF938282FF62
:1020300007A2020053721200D3F14108537122101B
:10204000D3F0401097E2FFFF9382C2FB27A012005B
:1020500097E2FFFF938242FB27A0220097E2FFFF57
:102060009382C2FA27A0320097E2FFFF938242FADE
:1020700027A0420097E2FFFF938202FB07A0020025
:1020800097E2FFFF938282FA87A00200D3711018B3
:10209000D3F10158D3F101586F0000001300000084
:0400000300000010E9
:00000001FF
